:100000000C942A000C9447000C9447000C94470071
:100010000C9447000C9447000C94EB010C9447009F
:100020000C9447000C9447000C9416010C94470064
:100030000C9447000C948E000C94C1000C94470063
:100040000C94F0040C9447000C9447000C94470067
:100050000C94470011241FBECFE5D8E0DEBFCDBF12
:1000600011E0A0E6B0E0E4ECF1E102C005900D92F1
:10007000AE3BB107D9F711E0AEEBB1E001C01D9284
:10008000AF3CB107E1F70E9449080C94E0080C94DA
:10009000000086E880BD549A539A83E389B9089595
:1000A0005D9BFECF8CB908955F9BFECF8CB1089508
:1000B00020E004C05D9BFECFECB92F5FFC01E20F96
:1000C000F11DE081EE23B1F70895DC015F9BFECFC7
:1000D0008CB18C9390E008C09F5F5F9BFECF8CB18A
:1000E000FD01E90FF11D8083FD01E90FF11D808104
:1000F000833291F710820895009769F061157105B8
:1001000051F09093BF018093BE017093C40160933E
:10011000C30181E001C080E0579A08951F920F92B9
:100120000FB60F9211242F933F934F935F936F93CA
:100130007F938F939F93AF93BF93EF93FF938091A0
:10014000BE019091BF01892B59F08CB1E091C301A0
:10015000F091C4018083E091BE01F091BF01099547
:10016000FF91EF91BF91AF919F918F917F916F918F
:100170005F914F913F912F910F900FBE0F901F9065
:1001800018951F920F920FB60F9211248F93EF9331
:10019000FF938091C001E091C101F091C201E80F8D
:1001A000F11DE081EE2321F0ECB98F5F8093C00157
:1001B000FF91EF918F910F900FBE0F901F901895A8
:1001C0001092C0019093C2018093C1010E947603F6
:1001D000559A8091C001E091C101F091C201E80FF0
:1001E000F11DE081EE2321F0ECB98F5F8093C00117
:1001F000089583B7806483BF83B7877F83BF8AEF07
:100200008CBF89B7826089BF8FB780688FBF83B783
:10021000816083BF83B7826083BF83B78B7F83BFD7
:1002200008959093C6018093C50108951F920F927F
:100230000FB60F9211242F933F934F935F936F93B9
:100240007F938F939F93AF93BF93EF93FF93E0912F
:10025000C501F091C601309709F00995FF91EF9122
:10026000BF91AF919F918F917F916F915F914F91CE
:100270003F912F910F900FBE0F901F90189583B74D
:10028000806483BF83B7877F83BF83B7806283BF68
:1002900083B78F7E83BF83B78E7F83BF83B7826030
:1002A00083BF83B78B7F83BF08958CBF08958FB5BD
:1002B00082608FBD8FB58E7F8FBD8EB588608EBDFD
:1002C0008EB580618EBD8FB580688FBD8FB58F7BF9
:1002D0008FBD8EB58E7F8EBD8EB582608EBD8EB584
:1002E0008B7F8EBD80E29EE497BD86BD08959BBD49
:1002F0008ABD08952F923F924F925F926F927F92A4
:100300008F929F92AF92BF92CF92DF92EF92FF9225
:100310000F931F93DF93CF93CDB7DEB73B014C0113
:1003200019012A01A80197016D897E898F89988D0D
:1003300062197309840995092A193B094C095D0959
:100340000E9467086218730884089508A401930145
:100350000E949A0879018A01EA0CFB1C0C1D1D1DE4
:10036000B701C801CF91DF911F910F91FF90EF90DE
:10037000DF90CF90BF90AF909F908F907F906F90C5
:100380005F904F903F902F9008958EB580648EBD02
:1003900089B7806289BF8EB58E7F8EBD8EB5826033
:1003A0008EBD8EB58B7F8EBD0895882319F48EB5D2
:1003B0008F7B02C08EB580648EBD089526B537B59B
:1003C000C90108959093C8018093C701089589B722
:1003D0008F7D89BF08951F920F920FB60F9211243F
:1003E0002F933F934F935F936F937F938F939F933D
:1003F000AF93BF93EF93FF93E091C701F091C801D2
:10040000309709F00995FF91EF91BF91AF919F91BE
:100410008F917F916F915F914F913F912F910F90AD
:100420000FBE0F901F9018951F93182F83E062E066
:1004300041E00E94F10383E063E040E00E94F103A9
:1004400082E0612F0E94AE0483E064E041E00E94FC
:10045000F10380EA9FE00197F1F783E064E040E078
:100460000E94F1031F9108956F927F929F92AF9225
:10047000BF92CF92DF92EF92FF920F931F93DF9381
:10048000CF93CDB7DEB72A970FB6F894DEBF0FBE75
:10049000CDBF5B016C017B018C0197FF07C0EE248F
:1004A000FF248701E61AF70A080B190B99243E016D
:1004B0000894611C711C1AC0C801B7012AE030E021
:1004C00040E050E00E949A08F301E90DF11D605DE3
:1004D0006083C801B7012AE030E040E050E00E94AC
:1004E0009A08C901DA017C018D019394E114F104A9
:1004F0000105110509F7992019F480E389830CC0DF
:100500001A141B041C041D0414F49A9405C0FE0163
:10051000E90DF11D8DE28183F92C892D992787FD45
:1005200090958E010F5F1F4F080F191F07C0F8012C
:1005300080810E941402FA9401501040F7FEF7CF18
:100540002A960FB6F894DEBF0FBECDBFCF91DF91D4
:100550001F910F91FF90EF90DF90CF90BF90AF90E1
:100560009F907F906F9008951F93CF93DF93EC013E
:1005700010E003C00E9414021F5FFE01E10FF11D95
:1005800080818823B9F7DF91CF911F9108951F9340
:10059000182F83E062E040E00E94F10383E063E013
:1005A00040E00E94F10382E0612F0E94AE0483E0EC
:1005B00064E041E00E94F10380EA9FE00197F1F7D7
:1005C00083E064E040E00E94F1031F91089581E020
:1005D0000E94C70208950F931F93CF93DF938B015F
:1005E000880F880F880F805C0E94C702C0E0D0E0AF
:1005F000F801EC0FFD1F80810E9414022196C93082
:10060000D105B1F782E00E94C702DF91CF911F911F
:100610000F91089590E026E0880F991F2A95E1F741
:10062000860F911D80580E94C7020895FF920F9374
:100630001F93CF93DF9301E010E0FF24F394C8EC05
:10064000D0E00F25802F612F0E940A0380E690E002
:100650000E94B40284EC99E0FE013197F1F7019712
:10066000D9F781E00E94C7021F5F1C3051F7DF916C
:10067000CF911F910F91FF9008950F931F9382E0E8
:1006800061E00E94840483E062E041E00E947E0316
:1006900083E063E041E00E947E0383E064E041E0A8
:1006A0000E947E0380E991E028EC30E0F901319767
:1006B000F1F70197D9F788E30E94C70200ED17E030
:1006C000C8010197F1F78CE00E94C702C8010197A9
:1006D000F1F781E00E94C70280EA9FE00197F1F7FD
:1006E00086E00E94C7021F910F9108958FB780681E
:1006F0008FBF08958FB78F778FBF08954423D1F5AB
:100700008130A1F0813030F08230E1F0833009F0A7
:1007100067C024C02AB381E090E002C0880F991F0F
:100720006A95E2F7809582238ABB089527B381E01A
:1007300090E002C0880F991F6A95E2F780958223A6
:1007400087BB089524B381E090E002C0880F991F11
:100750006A95E2F78095822384BB089521B381E0F6
:1007600090E002C0880F991F6A95E2F78095822376
:1007700081BB08954130A1F5813091F0813028F09E
:100780008230C9F0833061F521C02AB381E090E066
:1007900002C0880F991F6A95E2F7282B2ABB08959B
:1007A00027B381E090E002C0880F991F6A95E2F7B5
:1007B000282B27BB089524B381E090E002C0880F66
:1007C000991F6A95E2F7282B24BB089521B381E095
:1007D00090E002C0880F991F6A95E2F7282B21BB91
:1007E00008954423D1F58130A1F0813030F082307A
:1007F000E1F0833009F067C024C02BB381E090E0C2
:1008000002C0880F991F6A95E2F7809582238BBBFF
:10081000089528B381E090E002C0880F991F6A957F
:10082000E2F78095822388BB089525B381E090E0AC
:1008300002C0880F991F6A95E2F78095822385BBD5
:10084000089522B381E090E002C0880F991F6A9555
:10085000E2F78095822382BB08954130A1F5813073
:1008600091F0813028F08230C9F0833061F521C0E9
:100870002BB381E090E002C0880F991F6A95E2F7E0
:10088000282B2BBB089528B381E090E002C0880F8D
:10089000991F6A95E2F7282B28BB089525B381E0BC
:1008A00090E002C0880F991F6A95E2F7282B25BBBC
:1008B000089522B381E090E002C0880F991F6A95E5
:1008C000E2F7282B22BB0895813051F0813030F0BF
:1008D000823041F0833079F080E0089589B303C01D
:1008E00086B301C083B390E002C0959587956A9561
:1008F000E2F78170089580B390E002C095958795E6
:100900006A95E2F781700895662389F4813049F091
:10091000813028F0823039F08330F9F406C01ABAF9
:10092000089517BA089514BA089511BA0895613058
:10093000A1F4813051F0813028F0823049F08330C9
:1009400061F409C08FEF8ABB08958FEF87BB0895CC
:100950008FEF84BB08958FEF81BB0895813049F0FC
:10096000813028F0823039F0833041F406C06BBB0F
:10097000089568BB089565BB089562BB08958130F2
:1009800051F0813030F0823041F0833041F080E02E
:10099000089589B3089586B3089583B3089580B305
:1009A00008953F983E9A3D9A379A35983398309AF1
:1009B000319A329A089597B1907E97B997B1982B52
:1009C00097B9369A6093C9017093CA015093CC01CC
:1009D0004093CB018FB780688FBF339A862F0895DD
:1009E0001F920F920FB60F9211242F933F934F93A4
:1009F0005F936F937F938F939F93AF93BF93EF9387
:100A0000FF9385B1E091C901F091CA018083E09123
:100A1000CB01F091CC010995FF91EF91BF91AF917E
:100A20009F918F917F916F915F914F913F912F9106
:100A30000F900FBE0F901F90189597B1907E97B9A9
:100A400097B1982B97B9369A349BFECF3698349A43
:100A500085B1089581E060E040E00E94F10381E00B
:100A600061E040E00E94F10381E062E040E00E942A
:100A7000F103089581E060E041E00E94F10381E02C
:100A800061E041E00E94F10381E062E041E00E9408
:100A9000F10308950E94E70286E690E00E94B40206
:100AA00081E060E00E940A0385E790E00E94B402C2
:100AB0000E9454008093CE01813319F0823331F4C7
:100AC00003C00E943A0508950E942A05089580E017
:100AD00062E041E00E94F10308950E94E70286E689
:100AE00090E00E94B40281E060E00E940A0385E782
:100AF00090E00E94B4020E9454008093CE018133A2
:100B000019F0823361F406C080E062E041E00E94A7
:100B1000F103089580E062E040E00E94F10308954F
:100B2000823019F1833009F459C0813009F064C072
:100B300080E061E041E00E94F10380E197E228EC6F
:100B400030E0F9013197F1F70197D9F780E061E0E2
:100B500040E00E94F10388EE93E028EC30E0F901D8
:100B60003197F1F70197D9F7089580E061E041E00E
:100B70000E94F10388EE93E028EC30E0F901319710
:100B8000F1F70197D9F780E061E040E00E94F103BE
:100B900088EE93E028EC30E0F9013197F1F7019706
:100BA000D9F780E061E041E00E94F10388EE93E034
:100BB00028EC30E0F9013197F1F70197D9F780E09F
:100BC00061E040E00E94F10388EE93E028EC30E021
:100BD000F9013197F1F70197D9F7089580E061E0C5
:100BE00041E00E94F10388EE93E028EC30E0F90147
:100BF0003197F1F70197D9F7089581E060E041E07E
:100C00000E947E0381E061E041E00E947E0381E07A
:100C100062E041E00E947E03089583E060E040E0EE
:100C20000E947E0383E061E041E00E947E0380E059
:100C300061E041E00E947E0383E065E041E00E94C4
:100C40007E0380E062E041E00E947E0380E060E09D
:100C500040E00E947E030E94FD05089580E00E940E
:100C60001D0590E0A0E0B0E0BC01CD0128E833E133
:100C700040E050E00E946708DC01CB01892F9A2FE9
:100C8000AB2FBB276AE070E00E948608862F08958C
:100C90001F931CC00E94E70281E060E00E940A03EB
:100CA0008FE790E00E94B40281E068E00E940A03AE
:100CB000612F70E080E090E00E94340280E062E00A
:100CC00041E00E94F10383E00E9490050E942E06FD
:100CD000182F8E32F8F61F9108950E94E7028FE7D1
:100CE00090E00E94B40280E00E941D0590E0A0E028
:100CF000B0E0BC01CD0128E833E140E050E00E94C3
:100D00006708DC01CB01892F9A2FAB2FBB276AE044
:100D100070E00E94860870E080E090E00E9434025B
:100D200080E395E728EC30E0F9013197F1F701977E
:100D3000D9F70E94E70288EE93E028EC30E0F90151
:100D40003197F1F70197D9F708950E94770188E864
:100D500093E128EC30E0F9013197F1F70197D9F7E9
:100D600008950E94E70286E890E00E94B40281E0C4
:100D700060E00E940A0386E990E00E94B4020E94AB
:100D800054008093CD010E94E7028091CD0182330F
:100D900079F0833318F48133A1F405C0833359F01B
:100DA000843379F40BC084EC99E00E94A506089581
:100DB0000E946D0608950E946D0508950E944A05DF
:100DC00008950E94E70287EA90E00E94B40280E161
:100DD00097E228EC30E0F9013197F1F70197D9F764
:100DE00008956F927F928F929F92AF92BF92CF920F
:100DF000DF92EF92FF920F931F93DF93CF93CDB7C4
:100E0000DEB72C970FB6F894DEBF0FBECDBF87EBD1
:100E100090E00E94B40288E893E128EC30E0F90108
:100E20003197F1F70197D9F7F2E0CF2ED12CE12CD1
:100E3000F12CE6E0AE2EB12CAC0EBD1E78EC672E88
:100E4000712C6DE0862E912C8C0E9D1E0E94E70267
:100E500082EC90E00E94B402C5010E94650005E4A6
:100E600011E0C501B8010E94D708009761F40E9403
:100E7000E70280E197E228EC30E0F9013197F1F7E1
:100E80000197D9F75CC0095F1F4F81E00B38180745
:100E900041F7F8C00E94E70283ED90E00E94B4029F
:100EA00081E00E94900581E060E00E940A0383EEE9
:100EB00090E00E94B40281E06BE00E940A03C70147
:100EC000B6010E9434028EEE90E00E94B40280E1EE
:100ED00097E2F3013197F1F70197D9F7F5011192F4
:100EE000E815F905E1F71BC00E94E70284EF90E0E6
:100EF0000E94B40281E060E00E940A0382E091E077
:100F00000E94B40283E00E94900580E197E228EC01
:100F100030E0F9013197F1F70197D9F79CC00894B7
:100F2000C108D108E108F1088FEFC8168FEFD80685
:100F30008FEFE8068FEFF80609F088CF8CC052E0FB
:100F4000C52ED12CE12CF12C4E010894811C911C52
:100F500048ECA42EB12C0E94E70282E191E00E94AD
:100F6000B402C4010E94650080E197E2F501319767
:100F7000F1F70197D9F70BE811E0C401B8010E941D
:100F8000D708009771F40E94E7020E94E70284E20A
:100F900091E00E94B40282E00E94900581E090E01E
:100FA0005CC00B5F1F4F81E00D3B180731F76EC02F
:100FB0000E94E70286E391E00E94B40281E00E9471
:100FC000900581E060E00E940A0383EE90E00E94B9
:100FD000B40281E06AE00E940A03C701B6010E94E0
:100FE00034028EEE90E00E94B40280E197E2F501B7
:100FF0003197F1F70197D9F719821A821B821C8267
:101000001D820894C108D108E108F1088FEFC816C5
:101010008FEFD8068FEFE8068FEFF80609F09BCF29
:101020001AC00E94E70284EF90E00E94B40281E0BF
:1010300060E00E940A0382E091E00E94B40280E135
:1010400097E228EC30E0F9013197F1F70197D9F7F1
:1010500083E00E94900580E090E02C960FB6F89413
:10106000DEBF0FBECDBFCF91DF911F910F91FF90DB
:10107000EF90DF90CF90BF90AF909F908F907F9038
:101080006F900895CC2009F42FCF04CFCC2049F2E3
:101090008FCF1F930E943D030E9449000E94D104FC
:1010A0000E9457010E94F9000E940D0684EF91E012
:1010B0000E9477010E94F106182F88E496E00E94B2
:1010C0001101112319F00E94B106FDCFFFCF629FDD
:1010D000D001739FF001829FE00DF11D649FE00D30
:1010E000F11D929FF00D839FF00D749FF00D659F91
:1010F000F00D9927729FB00DE11DF91F639FB00D90
:10110000E11DF91FBD01CF0111240895AA1BBB1BCE
:1011100051E107C0AA1FBB1FA617B70710F0A61BF7
:10112000B70B881F991F5A95A9F780959095BC0118
:10113000CD01089597FB092E05260ED057FD04D04A
:1011400014D00AD0001C38F4509540953095219564
:101150003F4F4F4F5F4F0895F6F7909580957095EC
:1011600061957F4F8F4F9F4F0895A1E21A2EAA1BC2
:10117000BB1BFD010DC0AA1FBB1FEE1FFF1FA21747
:10118000B307E407F50720F0A21BB30BE40BF50B44
:10119000661F771F881F991F1A9469F760957095CD
:1011A000809590959B01AC01BD01CF010895FB0195
:1011B000DC018D91019080190110D9F3990B0895EC
:0411C000F894FFCFD1
:1011C4006B6172696D00312D284F4E2920322D2814
:1011D4004F46462900332D2052657475726E0054B3
:1011E400454D503A2000312D4F70656E2E20322D22
:1011F40054656D702E00332D46616E2E2020342DE3
:101204004C696768742E00696E636F7272656374EB
:1012140020696E7075740057454C434F4D452E2E12
:101224002E00456E74657220757365726E616D650E
:101234003A200057524F4E472055534552204E41B5
:101244004D45005374696C6C206861766500747256
:10125400696573004E4F205452494553204C45460E
:10126400540053485554444F574E205359535445F2
:101274004D00456E7465722070617373776F72648C
:10128400203A200057454C434F4D4520484F4D458B
:10129400202E2E2E2E0057524F4E4720504153538E
:1012A400574F5244006B6172696D00006661647946
:1012B400000000616C69000000006A6F6F000000AC
:1012C400006B6F6B790000006A6F64000000006DB2
:1012D4006573736900007368616479000073616CFD
:1012E400616800006E6F6F720000003131310000E0
:1012F40032323200003333330000343434000035EA
:1013040035350000363636000037373700003838B8
:0E131400380000393939000030303000000058
:00000001FF
